:020000041000EA
:100000000000013091020010A3020010A5020010B0
:10001000A7020010A9020010AB02001000000000AF
:10002000000000000000000000000000AD02001011
:10003000AF02001000000000B1020010B302001077
:10004000B5020010B9020010BD020010C10200107C
:10005000C5020010C9020010CD020010D10200102C
:10006000D5020010D9020010DD020010E1020010DC
:100070001D340010E9020010ED020010F102001022
:10008000F5020010F9020010FD020010010300103B
:1000900005030010090300100D03001011030010E8
:1000A00015030010190300101D0300102103001098
:1000B00025030010290300102D0300103103001048
:1000C00035030010390300103D03001041030010F8
:1000D00045030010490300104D03001051030010A8
:1000E00055030010590300105D0300106103001058
:1000F00065030010690300106D0300107103001008
:1001000075030010790300107D03001081030010B7
:1001100085030010890300108D0300109103001067
:1001200095030010990300109D030010A103001017
:10013000A5030010A9030010AD030010B1030010C7
:1001400000F002F800F096F80AA090E8000C824453
:100150008344AAF10107DA4501D100F08BF8AFF230
:10016000090EBAE80F0013F0010F18BFFB1A43F095
:100170000103184784610000A4610000103A24BF05
:1001800078C878C1FAD8520724BF30C830C144BFFC
:1001900004680C607047000000230024002500263E
:1001A000103A28BF78C1FBD8520728BF30C148BFDA
:1001B0000B6070476E2900F02A87702900F0EB82EF
:1001C000662905F08285652905F07F85672905F098
:1001D0007C85612905F07B8503681B0A28BF41F0F7
:1001E0008001692900F05C82642900F05982752938
:1001F00000F056826F2901F00380782900F0B78261
:10020000E92900F09D87E42900F09A87F52900F09C
:100210009787EF2901F00080F82900F0B682036883
:10022000DB0928BF41F08001632901F0B185732902
:1002300001F0B685E32901F0C185F32901F0C685F7
:10024000002070471FB505F02EFD9DE8030000F06B
:10025000EDFD01F099FE04000020002105F056FBA1
:10026000401C60600020002105F066FBE06001F0AA
:10027000B1FD1FBDDFF814D003B403F02DFF03BCA4
:1002800001F0BAFF01F0C2FF04F09AF8000001305B
:1002900072B6494880F30A884848804762B64848A1
:1002A0000047FEE7FEE7FEE7FEE7FEE7FEE7FEE7C4
:1002B000FEE7FEE7434800474348004743480047FE
:1002C00043480047434800474348004743480047E6
:1002D00043480047434800474348004743480047D6
:1002E00043480047434800474348004743480047C6
:1002F00043480047434800474348004743480047B6
:1003000043480047434800474348004743480047A5
:100310004348004743480047434800474348004795
:100320004348004743480047434800474348004785
:100330004348004743480047434800474348004775
:100340004348004743480047434800474348004765
:100350004348004743480047434800474348004755
:100360004348004743480047434800474348004745
:100370004348004743480047434800474348004735
:100380004348004743480047434800474348004725
:100390004348004743480047434800474348004715
:1003A0004348004743480047434800474348004705
:1003B00043480047FEE7000000FC0030F53700101E
:1003C00041010010B5030010312E001075310010EE
:1003D00095310010D73100100D320010433200105B
:1003E000793200104F3D0010B5030010172C00109B
:1003F0001D2C0010B5030010292C0010312F001007
:10040000792F0010C12F001009300010513000105A
:1004100099300010E130001029310010B5030010B0
:10042000B5030010B5030010B5030010B5030010AC
:10043000B5030010B5030010B5030010B50300109C
:10044000B5030010AF320010E53200101B3300106E
:1004500051330010232C00102F2C0010B531001048
:10046000B5030010B5030010B50300107935001076
:10047000B5030010B5030010B5030010B50300105C
:10048000B5030010B5030010B5030010813700104C
:10049000BB370010B5030010B5030010B503001002
:1004A000B5030010B5030010B50300103D2E001079
:1004B000B5030010B5030010B5030010B50300101C
:1004C000B503001070470000004870475C02003020
:1004D00070B5064600F08EFC056806F10B0020F0B2
:1004E0000704B4429CBF002070BD2B466A68BAB1B5
:1004F0001068A04210D304F1080188423CBF506844
:10050000586007D35168101941601168091B0160D8
:1005100058601460101D70BD13465268002AE7D160
:100520002146284600F06EFC0028DED170BD70B573
:100530000446051F00F05EFC0068002C14BF4468F0
:1005400070BD002C18BFAC423CBF20466468F8D395
:1005500001680A18AA4218BF456003D12A680546F7
:100560001144016028684119A1421CBF6C6070BD34
:100570006168696021680844286070BD53EA020C14
:1005800000F069802DE9F04B4FF00006002B1FBFF3
:10059000B3FA83F503FA05F424FA05F65E4012BFB8
:1005A0001643B2FA82F502FA05F4C5F120051EBF22
:1005B00022FA05FC44EA0C04203556EA044C4FEAC2
:1005C000144418BF641C4FF000084FF0000990421B
:1005D00071EB030C39D3002919BFB1FA81F701FA85
:1005E00007F6B0FA80F700FA07F6C7F120071EBF3A
:1005F00020FA07FC46EA0C062037B6FBF4FCA7EB12
:100600000507103F07F01F0BCBF120062CFA06F66A
:100610000CFA0BFB44BFB3460026202FA4BF5E4656
:100620004FF0000B5BEA060C08BF4FF0010B19EB13
:100630000B0948EB0608ABFB027C06FB02CC0BFB6C
:1006400003CCC01B71EB0C01C1E70B4602464146CF
:100650004846BDE8F08B13B54FF000004FF00001A5
:10066000AFF30080BDE81C40704700007CB51D461C
:1006700016460C00009001D02044401E074B7B44DE
:100680002A4669460190304600F0DBFC05461CB165
:100690000020694600F0E8FC28467CBDF109000016
:1006A0002DE9F0410646002410687529314616A54B
:1006B00010D000F018FC002802DA404213A507E031
:1006C00031688A0701D512A502E0490704D511A5B2
:1006D000012401E000F010FC00210A2206F12407A9
:1006E00009E0B0FBF2FCB0FBF2F302FB1C0030307F
:1006F00078541846491C0028F3D123462A46304630
:10070000BDE8F04100F02ABC000000002D00000010
:100710002B00000020000000F0B40D460188090500
:1007200002D5214C7C4402E01F4C7C440E34002155
:1007300000F1240608E002F00F071209E75D42EA23
:1007400003721B097754491C52EA0307F3D102785C
:100750000023120704D5702D06D009B102231134ED
:100760002246F0BC00F0FABB01231034F8E770B564
:1007700004460D462146106800F0BEFB024629469D
:100780002046BDE870400023C6E7D21D22F00703D3
:10079000D3E90023C0E70368126843F02003036035
:1007A0000823C3610023B7E7AA5500002DE9F05FD5
:1007B000894604464FF0000ADFF874B1FB44C0F8E4
:1007C00020A02046E1688847002874D0252806D05C
:1007D000D4E901219047206A401C2062F1E70026FD
:1007E0005F462046E16888472028054607DB312D13
:1007F00005D2781910F8200C08B10643F1E7B007CC
:1008000001D526F00406C4F81CA00027C4F818A0DF
:100810002A2D09D0284605F064F838B304EB870880
:10082000303DC8F8185019E059F8041B204604EB75
:1008300087029161E1688847012F054618D1E06978
:10084000002820DA26F020061DE0D8F8180000EB7A
:10085000800005EB40003038C8F818002046E168F9
:100860008847054605F03DF80028EED1012F0AD053
:100870002E2D08D12046E16888477F1C0546022FAF
:1008800046F02006C4DBA069002803DA404246F0A7
:100890000106A061F00701D026F010066C2D0BD0E8
:1008A000682D09D04C2D39D06A2D35D0742D35D016
:1008B0007A2D33D016E038E0E1682F46204688478D
:1008C000B842054609D16C2F26D04FF48060E1680C
:1008D000064320468847054604E06C2F1AD04FF4A3
:1008E000807006430DB3A5F14100192802D82035C8
:1008F00046F400664A462946204626604E46FFF7E3
:1009000059FC80B101280BD0F61D26F0070000F13C
:10091000080956E74020E4E78020D8E70020D6E722
:1009200006F104094DE7284652E7206ABDE8F09F2A
:100930003A55000070B50446C068810713D08006A0
:1009400001D5A56A04E0A169606808442169451AD7
:10095000204600F0CFFD002206462946204600F042
:100960002DF8304670BD002070BD70B510B1BDE8E7
:100970007040DFE70025074C6E1E07E02046FFF7BA
:10098000D9FF00B13546206D20F00104002CF5D1CF
:10099000284670BD6402003070B50D46044604E080
:1009A000294604F0A5FF401C04D014F8010B0028D0
:1009B000F6D170BD4FF0FF3070BD00002DE9F04161
:1009C000044616460D464769007B80072ED0384600
:1009D00003F0B1FB50BB3EB3012E02D0022E25D155
:1009E00004E0204600F00DFD05441DE0384603F00C
:1009F0008EFBE168002841F01001E16005DA204635
:100A000000F044FD0120BDE8F081C9030BD5626808
:100A1000E16A914200D81146A26911442269891AFB
:100A2000814200DD08460544002D01DA0220EAE794
:100A3000E16A6068E268814206D29103E06203D510
:100A400022F4003141F01002A6690027AE4213DC07
:100A5000E16A814201D90B4600E0034603EB060C34
:100A60002369ACEB030CAC4506DD814201D98C4611
:100A700000E084469C4505D1A760276042F0200035
:100A8000A5620DE0AD1BE669AE1B8142A66000D9F0
:100A90000846C01A281A20605819606022F0200009
:100AA00003490840E060002084F84870ABE700008C
:100AB000BFCFD7FF2DE9F0410C460746164610463A
:100AC00000F06EF82078611C61280AD0722802D0EC
:100AD00077283CD102E00125002405E0022504240A
:100AE00002E0082448F2020511F8010B2B2806D079
:100AF000622809D011F8010C74280AD00BE045F0E7
:100B0000030544F00204EFE745F0040544F0010456
:100B1000EAE744F010043846214603F00EFB411C7E
:100B200015D00021316171604FF40071F560F16101
:100B30007061200704D5304602220021FFF73EFFF6
:100B4000306D40F0010030653046BDE8F081002096
:100B5000FBE72DE9F0410D460646104C206DC1071C
:100B600004D0410804D020F00104F7E722460EE04B
:100B70005420FFF7ADFC07000ED0206D47F00101B7
:100B8000084354212065384600F0C9F83A46294602
:100B90003046BDE8F0418DE70020D6E76402003022
:100BA0002DE9F04704464FF000094FF0FF37C568C4
:100BB000D4E90486A80707D0204600F09BFC304605
:100BC00003F0A1FA002802DA3846BDE8F0872805CC
:100BD00002D54046FFF7ABFC4C21204600F09FF8C1
:100BE000206D20F0010020654846EEE70EB5054671
:100BF00014460E4613A001F0BBF9284601F0B8F9DF
:100C000016A001F0B5F9304601F0B2F915A001F0D7
:100C1000AFF900218DF80B100A210DF10A008DF8B3
:100C20000A1008E094FBF1F201FB124294FBF1F48C
:100C3000303200F8012D002CF4DC01F099F900F0BD
:100C40009DFC00002A2A2A20617373657274696F03
:100C50006E206661696C65643A2000002C2066692C
:100C60006C6520002C206C696E65200030B5034651
:100C70001D783DB10A4612F8014B1CB1AC42FAD1C5
:100C80005B1CF5E7181A30BD40EA010310B59B075D
:100C90000FD1042A0DD310C808C9121F9C42F8D0E6
:100CA00020BA19BA884201D9012010BD4FF0FF3097
:100CB00010BD1AB1D30703D0521C07E0002010BDAD
:100CC00010F8013B11F8014B1B1B07D110F8013B39
:100CD00011F8014B1B1B01D1921EF1D1184610BD1A
:100CE00010B5431C02E010F8011B71B18107FAD165
:100CF0004FF0013202C88C1A8C4314EAC211F9D0A9
:100D0000C01A0A0603D0C01E10BDC01A10BD0A04C6
:100D100001D0801E10BD0902FCD0401E10BD4FF056
:100D2000000200B5134694469646203922BFA0E83B
:100D30000C50A0E80C50B1F12001BFF4F7AF090747
:100D400028BFA0E80C5048BF0CC05DF804EB890038
:100D500028BF40F8042B08BF704748BF20F8022B7B
:100D600011F0804F18BF00F8012B70470000000001
:100D700030B44FF0013C50F8042B51F8043BCCFA4E
:100D800052F4D51A20D1FCB950F8042B51F8043B89
:100D9000CCFA52F4D51A17D1B4B950F8042B51F843
:100DA000043BCCFA52F4D51A0ED16CB950F8042B8E
:100DB00051F8043BCCFA52F4D51A05D1002CDAD004
:100DC00030BC4FF00000704729BAB1FA81F111F040
:100DD0001801D1F120008440F2D1CA40CB4012F07A
:100DE000FF0213F0FF0330BCD01A70477047704702
:100DF0007047704700487047600200307047704786
:100E00007047704738B504460A4600206946AFF37C
:100E10000080002808BF38BD02460099204600F037
:100E2000C1FB012038BD012001F09BB8F8B5AFF33C
:100E30000080054600200C46102000BF0646A81979
:100E4000A0420DD9324669460020AFF3008007006A
:100E500008BF01F086F80098A04218BF0546C419E3
:100E6000FFF7C8FF05600746F01D20F00700461990
:100E7000284600F00AF8B44208BFF8BDA21B31466C
:100E80003868BDE8F84000F08DBB00210160C0E982
:100E9000011070471020704770B5044685690068DE
:100EA000C10601D5302600E02026C00707D070BD5E
:100EB000D4E9012130469047206A401C20626D1E13
:100EC000F6D570BD70B5044685690078C00707D1B6
:100ED00070BDD4E9012120209047206A401C206287
:100EE0006D1EF6D570BD09684A0501D540B2704740
:100EF000C905FCD500B2704709684A0501D5C0B2E2
:100F00007047C905FCD580B2704770B50C460546E0
:100F1000012A05D02878800600D5EA69002302E07E
:100F2000012305E05B1C934202D2E05C0028F9D16A
:100F3000A869E618C01AA861286A184428622846D9
:100F4000FFF7AAFF04E0D5E9012114F8010B90474F
:100F5000B442F8D32846FFF7B5FF70BD2DE9F0473E
:100F60000D4699469246044600F124080168880619
:100F700004D5E06921F01001216000E00120A842C1
:100F800001DD471B00E00027A1697A1902EB090087
:100F9000081AA0612078C00602D42046FFF77CFF23
:100FA000002608E0D4E901211AF806009047206ADB
:100FB000401C761C20624E45F4DB2078C0060AD522
:100FC0002046FFF769FF06E0D4E901213020904771
:100FD000206A401C2062381EA7F10107F4DC07E0FC
:100FE000D4E9012118F805009047206A401C2062CE
:100FF000281EA5F10105F3DC2046FFF763FF2078EA
:10100000000602D50220BDE8F0870120FBE7116849
:101010000268006A530501D508700AE0D30501D5BE
:10102000088006E0130603D5C217C1E9000200E0FC
:10103000086001207047000001694A1C02610878BD
:10104000704700B58FB0CDE9013100210591054908
:101050007944CDE9031011466846FFF7A7FB0FB0AE
:1010600000BD0000E5FFFFFF0A6802F8010B0A60FF
:101070007047D1E900239A4202D2531C0B601070D2
:10108000704700002DE9FF5F15468A460446DFF8E9
:10109000AC80F8440027D8E900103E46CDE90010A6
:1010A00010E03AF816106A4602A800F02FFF411C23
:1010B00007D02178890603D5E269391891420DD805
:1010C0000744761C2078800602D5E069B84205DD29
:1010D000AE42E6DB3AF816000028E2D1A069C01B58
:1010E000A0612046FFF7D8FED8E90010CDE9001036
:1010F000002017E03AF818106A4602A800F006FF30
:10110000B0F1FF3F81460BD000250DF1080B05E043
:10111000D4E901211BF8050090476D1C4D45F7D31C
:1011200008F10100B0428046E4DB206A38442062C6
:101130002046FFF7C7FEBDE8FF9F0000764C000089
:101140002DE9F0418046D21D22F007020025D2E9A8
:101150000002F52915A614D0011E72F1000106DA6D
:101160000023D0EB030063EB020211A608E0D8F8DD
:1011700000108B0701D50FA602E0490701D50EA686
:1011800001251146002408F1240704E000F024FAA8
:1011900030323A55641C50EA0102F7D12B463246F0
:1011A00021464046BDE8F041FFF7D8BE00000000F0
:1011B0002D0000002B0000002000000030B40021B2
:1011C00000F1240408E002F00705D208303542EAB5
:1011D0004372DB086554491C52EA0305F3D10468E5
:1011E000002310A2250708D504F020040C4304D0E6
:1011F000C46901230CA2641EC46130BCFFF7AEBEFB
:1012000010B5044621461068FFF776FE02462046D8
:10121000BDE810400023D1E7D21D22F00701D1E93B
:101220000023CBE700000000300000002DE9F0476C
:1012300005460C46C86820F4201040F48000C860C1
:10124000800602D5084600F078F9E06841F2820194
:101250004FF0FF390140022903D0204600F016F973
:10126000B5E000F42041B1F5004F0FD1C00306D521
:101270006168E06A884200D80846606006E020693C
:10128000E0626060606902F042FFA061A068002235
:10129000EEB200280DDAE1688B050AD4C043A060E5
:1012A00041F490302260E0606068411C616006702B
:1012B000A5E0E0689046226040F40050E0602069BC
:1012C00068BB606902F037FF012704F12405A0B173
:1012D000A08910F4407F08D0E069FFF7F9F8206199
:1012E00018B1E06840F4006016E0E7612561E0684D
:1012F00020F4407040F480600EE0E069FFF7E8F809
:1013000000282061F1D0E06840F4006010F4407FD4
:10131000E06002D140F48070E06020696060E068C5
:1013200025696FF0010AC1051FD56168E06A88422E
:1013300000D80846411B04D02246284600F0B0F8E9
:10134000F0BBE068010203D5E562C4E9015854E04E
:10135000691CE1626160E16940F48030491EC4E9C2
:10136000021030462E70BDE8F087010202D500F46D
:1013700080320AE06068411C61600670E0680A2EF5
:1013800040F48030E06006D00022E16A606881426B
:1013900003D90B4602E00122F7E70346A7895B1B4E
:1013A0007F0503D4E7699F4200DDE2B1814200D8A6
:1013B0000146E5620F1AC4E90158002B09DD00E07F
:1013C00005E022461946284600F06AF808B148466A
:1013D000C9E747B1A069E5626560C01BA061E0682C
:1013E00040F01000E060E068000208D56168A06984
:1013F000E562491B08446560A0615046B3E730468A
:10140000B1E710B50146C268900703D0900607D532
:10141000886A0AE0FFF758F801210160881E10BDB4
:101420008B69486818440B69C01A91F848301BB1A1
:1014300091F84910401A10BD1103FCD50028FADDBF
:10144000401E10BD70B5C468A50713D0650211D445
:10145000B2F5807F09D0B2F5007F06D0B2F5806F7B
:1014600008D1012300F1240106E05D1E6FF07F46E4
:10147000B54201D3012070BD0161C361416024F414
:1014800070611143C160002070BD0000C16821F48B
:10149000001141F08001C16000218160016070474E
:1014A0002DE9F047814614460E464FF0FF3832488A
:1014B000D5685769054209D03846A16902F083FE14
:1014C000002811DB2C48C0430540E5602B4632461E
:1014D0004946384602F07AFEA16920F00042B21A6D
:1014E00011440028A16103D02046FFF7CFFF4046FA
:1014F000BDE8F08770B504460569C06A6168884236
:1015000000D80846E16821F42011E160C90312D532
:10151000A84208D02246411B2846FFF7C1FF10B160
:101520004FF0FF3070BD0020E562C4E90150E06873
:1015300020F48030E060002070BD10B50446C06823
:1015400020F02000E060A16AA06988420DD020460A
:10155000FFF7D0FFE06820F4405040F01000E0605A
:10156000A06AA0612069E062606044F24001E06826
:101570008843E06010BD00001000020010B500209C
:1015800000F0E8FCAFF30080BDE81040012002F05D
:10159000BDBD000010B500F0F7FC001D10BD00BF80
:1015A0006D430000034640688C46002818BF8842FF
:1015B0003CBF03464068F8D318681844884207D0F7
:1015C0000CF1030020F00700001D411A521A0146D9
:1015D000081D0A60FEF7ABBF30B5B0F10A0271F129
:1015E00000034FEA900E4EEA817EB0EB0E0061EBF5
:1015F00091014FEA101E4EEA017E10EB0E0041EB06
:1016000011114FEA102E4EEA016E10EB0E0041EB65
:1016100011214FEA104E4EEA014E10EB0E0041EB45
:101620001141401841F100014FEAD00040EA4170F9
:101630004FEAD1014FEA810444EA907410EB80052F
:1016400044EB01046D1944EB0404521BA3414FF019
:10165000000348BF0A3200D530BD401C41F10001F3
:1016600030BD2DE9FF4F0C461E464FF0FF378BB0C3
:10167000D2E90001DDF860800A908A46C1F30A557C
:1016800005B93D46002108464FF00000BAF1000FB1
:1016900000F4400005DA00EB80004FF4400101EA5D
:1016A00050004FEA9059B9F1010F00DDB9460A9890
:1016B00050EA4A000ED044F61050A5F2FF354543DB
:1016C0002F14B8F1000F1ED07542291E1EDDC9F17E
:1016D00000021CE0B8F1010F4FF0000001D03021F2
:1016E00003E0F24305E02154401CB042FBDB3046EE
:1016F0000022002121540B99C1F80880C1E9002083
:101700000FB0BDE8F08FBD1B6D1CDEE74A4600DA66
:10171000694206A800F07CFC06AB93E8070003AB27
:1017200083E8070050460A9903F0FBFC8DE80700A8
:10173000A0F500501F3800900398002D0ADD42F2FA
:101740001F014A460844002303A90390684603F09A
:1017500064FF09E0A0F500504A461F38002303A9A2
:101760000390684603F06EFF8DE807000004000C4C
:1017700003D04FF0FF30410800E01046B8F1000FF1
:1017800003D00022009215461EE0751E05D4FFF717
:1017900023FF303262556D1EF9D5B346012208434E
:1017A00002D000227F1C04E02078302801D10022E2
:1017B0007F1E002A099784D01DE0112D07DAFFF75C
:1017C0000BFF303262556D1C50EA0102F5D108431F
:1017D00002D00098C8B10EE00021681E05E0235C2D
:1017E000625C63542254401E491C8142F7DBAB46C5
:1017F000A81B401E0990002004F80B000B98099AC2
:10180000C0F80880C0E9002B7AE711264FF00008E5
:1018100057E72DE9F04F88460446D21D22F0070114
:1018200091B0D1E90001CDE90A0104F042F8024685
:101830000B98C00F01D02D2007E02068810701D54B
:101840002B2002E0202101EAC000032A099001D0E8
:10185000072A05DB03464146204600F099FB0BE1D1
:101860002078800601D5E06900E00620B8F1650F18
:10187000814606D0B8F1660F18D0B8F1670F70D165
:1018800031E00020B9F1110F009001DB112301E0DC
:1018900009F101030AAA01A90CA8FFF7E2FEDDE99C
:1018A0000C70002609F10105834647E001204B46F4
:1018B00000904FF000470AAA01A90CA8FFF7D1FE3B
:1018C000DDE90DB00C995D46002610B909F1010063
:1018D0000D18B9EB050003D4C0F1FF3609F101057D
:1018E000A5EB09002BE0B9F1010F01DA4FF0010976
:1018F0000020B9F1110F0090484601DD112300E0EE
:1019000003460AAA01A90CA8FFF7ABFEDDE90C709B
:101910004D4600268346207800070AD4AB4500DAFE
:101920005D4601A8012D04DD411911F8011C302983
:1019300007D04F4502DA17F1040F04DA012082467E
:101940000FE06D1EEEE7002F02DCED1B3E4403E0CE
:10195000781CA84200DD7D1CB81B00F1010A4FF085
:1019600000472078000703D4AA4501DB4FF0FF3A77
:101970000021B7F1004F0DF143088DF8431024D03A
:1019800002202B23002F01DA7F422D230A21021E81
:10199000A0F1010000DC5FB197FBF1FC97FBF1F2D5
:1019A00001FB1C7C17460CF1300C08F801CDEEE76A
:1019B000A8F1010003702188090501D5452100E047
:1019C0006521A0F1010800F8011C09980FA9A1EBFD
:1019D0000807FF1D00B10120411901EBEA70A16960
:1019E0003844081A401EA0612078C00602D4204660
:1019F000FFF752FA099828B1D4E901219047206AEB
:101A0000401C20622078C00622D52046FFF744FA09
:101A10001EE0002E04DBB34502DD01A8805D00E07E
:101A20003020D4E901219047206A401C2062761CB6
:101A3000AAF101005FEA000A0AD100F0A5FAC06825
:101A40000168405CD4E901219047206A401C206273
:101A5000281EA5F10105DCDC07E0D4E9012118F816
:101A6000010B9047206A401C2062381EA7F1010735
:101A7000F3DC2046FFF726FA032011B041E6000010
:101A80002DE9F04F04460D46D21D22F0070089B023
:101A9000D0E900974846394603F00BFF0246F80F9D
:101AA00001D02D2307E02068810701D52B2302E018
:101AB000202101EAC0038DF820300BB1012000E0A5
:101AC0000020032A824601D0072A04DB294620464B
:101AD00000F05EFA3FE12078800601D40D2500E099
:101AE000E569C7F30A560D2D49DA00214FEA175B65
:101AF00008464FF00000002F00F4400007DA00EB2A
:101B000080004FF4400100EBD07001EA60008115C5
:101B1000012901DD4FF0FF3100224FEA850CBCF1B5
:101B2000180F06D31346ACF118004FF08052C24094
:101B300003E04FF4801323FA0CF30CF10C0CBCF10E
:101B4000200F04D3ACF1200C09FA0CF001E007FAE5
:101B50000CF000294FF0004801DD18B90FE00ED15C
:101B600040450CD319EB02095F4121B9404502D130
:101B70009F4329EA0209BBEB175F00D0761C20883F
:101B8000000502D57B48784402E07A487844193849
:101B900008AA302302F80A30037C0AF10101002E62
:101BA0000AF1020A53546A4602DC4FF0300101E0A8
:101BB0004FF031014FF001088DF8001002D0A6F26D
:101BC000FF3603E059EA470100D06B4E002D02DCDE
:101BD0002178090704D54FF002082E218DF8011055
:101BE000C44600210BE0C7F303433F01C35C491C1B
:101BF0006D1E02F80830052908F1010801DA002DF0
:101C0000F1DC00210CE000EB1973491C1B786D1E00
:101C1000082902F808304FEA091908F1010801DA29
:101C2000002DF0DC21688B0602D516E0A8F1010832
:101C3000E04505DD02EB080313F8013C302BF5D03D
:101C4000B8F1000F09DD02EB080313F8013C2E2B5D
:101C500003D1090701D4A8F10108002D05DD3E21BB
:101C600002F808106D1E08F10108407C002E02F8F1
:101C7000080008F1010804DA2D20764202F8080075
:101C800002E02B2002F808000A214FF47A70864205
:101C900008F101080BDB96FBF0F3303302F8083053
:101CA00096FBF0F308F1010800FB136601E0642ED7
:101CB0000CDB642096FBF0F3303302F8083096FB1F
:101CC000F0F308F1010800FB136601E00A2E06DBC1
:101CD00096FBF1F0303002F8080008F1010896FB9D
:101CE000F1F001FB1060303002F80800A16908F142
:101CF000010808EB050202EB0A00081AA06120782F
:101D0000C00602D42046FFF7C7F8216A08AE01EBEF
:101D10000A00206204E0D4E9012116F8010B904783
:101D2000BAF1010AF7D22078C00602D52046FFF7A3
:101D3000B3F86E4609E016F8010B3E280FD0D4E93F
:101D400001219047206A401C2062B8F10108F2D2BC
:101D50002046FFF7B7F809B00320BDE8F08F206AEE
:101D60002844206203E0D4E90121302090476D1E11
:101D7000EBD3F8E79D41000002FCFFFF10B543697B
:101D800013B1AFF3008001E0FFF7BFF8012010BDF1
:101D9000127800F124010A7000224A700122EDE756
:101DA00011684FF0FF32E9E710B5436913B1AFF3A3
:101DB000008001E0FFF766F9012010BD128800F1F4
:101DC000240182840022C2840122EDE711684FF0D1
:101DD000FF32E9E710B542485421FEF7A0FF414821
:101DE0005421FEF79CFF40485421FEF798FF3F49DD
:101DF0003B483C4A3F4B08603D490A603A491960FC
:101E0000531C0365481C1065012008653B48344A93
:101E100039A17844FEF74EFE20B9384878440A3894
:101E200000F086F937482F4A35A17844FEF742FE84
:101E300020B9344878440A3800F07AF932482A4AFE
:101E40002FA17844FEF736FE20B92F4878440A388F
:101E500000F06EF940232248DC0000212246FFF703
:101E6000F1FA20B125487844543800F061F91D4852
:101E7000224640230021FFF7E5FA20B121487844AB
:101E8000543800F055F91848224610230021FFF776
:101E9000D9FA002806D01C487844BDE810405638CE
:101EA00000F046B910BD104870B5006D20F0010477
:101EB0000B48FEF775FE0B48FEF772FE0A48FEF768
:101EC0006FFE09E0206D20F001052046FEF768FE58
:101ED0002046FEF72CFB2C46002CF3D170BD0000F1
:101EE00064020030B80200300C0300300002003001
:101EF00004020030080200307200000016400000AA
:101F00007700000005400000DE3F00002DE9F041B1
:101F100016460C460546FFF73DFB036893F80101A2
:101F2000012807D0FF2C12D8185D80B101202C7039
:101F3000BDE8F081D3F807013246214603F20713CA
:101F4000C7182846BC46BDE8F041002360474FF063
:101F5000FF30EDE710B500F0D3F8BDE8104000F019
:101F6000C9B810B500F0ECF8BDE8104000F0C2B8F8
:101F700010B50449FEF710FDBDE810400148FEF71A
:101F8000F4BC00000C0300300048704760030030D0
:101F90002DE9F0411F46044603260168072A01F493
:101FA000006004DB08B116A505E016A503E008B142
:101FB00015A500E015A521F010002060A069C01E45
:101FC000A0610FB1401EA0612046FEF765FF4FB132
:101FD000D4E9012138469047206A401C2062C01C89
:101FE000206206E0206AFAE7D4E9012115F8010B26
:101FF0009047761EF8D22046FEF764FFBDE8F081D8
:102000004E414E006E616E00494E4600696E66009C
:102010002DE9F047814616468AB0354878440DC808
:102020008DE80D0032487844801C03AC0DC884E86C
:102030000D0041F69B300844372190FBF1F290FBF4
:10204000F1F5A5F1800501FB12041B3C02D56442A9
:10205000012000E00020DFF898A080460027FA4425
:10206000AAF1BE0A0EE0E0070AD03246684607EB46
:10207000470101230AEB810103F0E4FA8DE8070030
:1020800064107F1C002CEED1194F7F44AE3F19E045
:10209000E80715D007EB04100DF1180A90E80E00C0
:1020A0008AE80E00C068F04201D1981908903246C3
:1020B000012306A903A803F0C5FA03AB83E80700D0
:1020C0006D10641C002DE3D14FF0010332466946C8
:1020D000B8F1000F03A802D003F09FFA01E003F06B
:1020E000B1FAC9E90001C9F808200AB0BDE8F087D3
:1020F000983D0000002801D002F008B870470000A9
:1021000010B5002102A000F043F8012010BD00002E
:10211000534947414252543A2041626E6F726D6199
:102120006C207465726D696E6174696F6E00000079
:1021300010B500F047F8BDE81040FFF7DBBF000026
:1021400010B5012805D0002103A000F021F80120DE
:1021500010BD09A1F8E7000053494752544D454DC1
:102160003A204F7574206F662068656170206D6538
:102170006D6F7279000000003A2048656170206D33
:10218000656D6F727920636F72727570746564002B
:1021900070B505460C460A2000E06D1C02F080F880
:1021A00035B128780028F8D102E0641C02F078F8F4
:1021B00014B120780028F8D1BDE870400A2002F060
:1021C0006FB8000010B5014602A0FFF7E1FF012043
:1021D00010BD000053494752545245443A205265BD
:1021E0006469726563743A2063616E2774206F704E
:1021F000656E3A200000000041F2D06041F6D02127
:10220000C3F20000C3F20001FEF71CB880B502F073
:10221000ACFBBDE8804002F0B9BAB0B5C820C5F249
:1022200002002021016041F60030C0F2B70000F04A
:10223000B3FC49F20814C0F21004204600F01AF86A
:102240004DF60005C0F2B855284600F0A5FC28461A
:1022500000F07AFC20200121002200F060FC04F54F
:10226000407000F007F840F21020C3F20000056053
:10227000B0BD000010B540F00041B1F1004F25D0D5
:1022800040F2980E40F2602C0023C5F2020E4FF08F
:10229000FF32C5F2000C00BF04466FF31F346CB16F
:1022A00002EB1424C1B23F29E4B205D1DEF80010DC
:1022B0002143CEF8001001E04CF82140002B18BF5C
:1022C00010BD001300284FF00103E5D110BD10B57B
:1022D00040F2A424C5F20004206802280BD0012893
:1022E00003D0D8B900F0C0F819E041F2F050C3F2C1
:1022F0000000006813E0B820C5F202000068800604
:102300000CD443F21000C5F2010000684DF6000144
:102310004000C0F2B85101EAE07000E00020D4F8BB
:10232000F01001F007010131B0FBF1F010BD000029
:1023300040F26C21C5F2000151F82010002006295E
:1023400088BF7047DFE801F004063D0C212E340001
:1023500000F08AB841F2F050C3F200000068704704
:102360009820C5F20200006A800644BF0020704732
:1023700043F21000C5F2010000684DF60001400074
:10238000C0F2B85101EAE070704740F61820C5F27B
:102390000000006844F240214006C0F20F0101EA4B
:1023A000E070704741F2EC50C3F2000000687047E3
:1023B0009820C5F20200016A0168016A0068C00342
:1023C00080B2704710B540F28824C5F2000421683D
:1023D000002006293ED8DFE801F004070D19343D3E
:1023E0002A0000F041F835E041F2F050C3F200005D
:1023F00000682FE043F21000C5F2010040F25821BE
:102400000069C3F200010968C00121E09820C5F20B
:102410000200006A800625D443F21000C5F20100D4
:1024200000684DF600014000C0F2B85110E098205D
:10243000C5F20200016A0168016A0068C00380B247
:1024400008E0D4F8900744F240214006C0F20F01A2
:1024500001EAE070D4F8FC10012252FA81F1B0FBDD
:10246000F1F010BD0020F5E740F28020C5F2000039
:102470004168032916D001291ED0002958D10168CE
:1024800001B30168012930D143F21000C5F2010007
:1024900040F258210069C3F200010968C00101EA55
:1024A000E07070479820C5F20200016A0168016A75
:1024B0000068C00380B2704741F2F050C3F20000E0
:1024C000006870479820C5F20200006A80062FD489
:1024D00043F21000C5F20100006841F600314004EB
:1024E000C0F2B70101EAE07070470168022909D122
:1024F000D0F8980744F240214006C0F20F0101EAEB
:10250000E07070470068032812D19820C5F20200DD
:10251000006A80060CD443F21000C5F20100006886
:102520004DF600014000C0F2B85101EAE07070477A
:102530000020704740F2B021C5F2000151F82000A0
:1025400006281AD8DFE800F00438061B2E404600A3
:10255000FFF78ABF9820C5F20200006A80060CD4FB
:1025600043F21000C5F20100006841F6003140045A
:10257000C0F2B70101EAE070704700207047982070
:10258000C5F20200006A80062ED443F21000C5F2A4
:10259000010000684DF600024000C0F2B85202EAA5
:1025A000E07022E0D1F8680744F240214006C0F212
:1025B0000F0101EAE070704741F2F050C3F20000F1
:1025C0000068D1F8141112E041F2EC50C3F200009F
:1025D000006870479820C5F20200016A0168016A2C
:1025E0000068C00380B270470020D1F8D8100122E3
:1025F00052FA81F1B0FBF1F07047000010B50146CE
:102600001F284FF0000088BF10BDDFE811F0200048
:1026100024002F00DA00EF003300370025014500C9
:10262000F300F70049005D006B00710085008B002E
:10263000FB00080195009F001201A900B300BD0036
:10264000C100C60026012B01CB00D000D500BDE89B
:102650001040FFF709BFFFF707FF40F22031C5F236
:102660000001096E012252FA81F1F3E0BDE8104049
:10267000FFF7A8BEBDE8104000F021BA43F21000F9
:10268000C5F2010040F258210069C3F20001096857
:10269000000201EAE07010BDBDE8104000F042B950
:1026A000B820C5F202000068800600F19D8043F268
:1026B0001000C5F20100006841F600314004C0F28C
:1026C000B70101EAE07010BD43F21000C5F201004D
:1026D00040F258210069C3F200010968C00101EA13
:1026E000E07010BD41F2F050C3F20000006810BD70
:1026F00040F22030C5F20000D0F8F81644F2402233
:10270000C06E4906C0F20F0202EAE17100F03F001C
:102710000130B1FBF0F010BD41F2EC50C3F200000B
:10272000006810BD0020FFF705FF40F22031C5F220
:1027300000010A68096885E00320FFF7FBFE40F20C
:102740002031C5F20001CA68C9687BE00420FFF7A8
:10275000F1FE40F22031C5F200010A69096971E019
:102760000620FFF7E7FE40F22031C5F200018A693A
:10277000896967E00720FFF7DDFE40F22031C5F2EE
:102780000001CA69C9695DE0BDE8104000F070B899
:102790000020BDE81040FFF7CBBD0120BDE8104090
:1027A000FFF7C6BD0420BDE81040FFF7C1BD002003
:1027B000BDE8104000F054B90120BDE8104000F021
:1027C0004FB9B820C5F20200006880060CD443F26D
:1027D0001000C5F2010000684DF600014000C0F293
:1027E000B85101EAE07010BD002010BDBDE81040F6
:1027F000FFF76DBDBDE8104000F0BEB8BDE8104069
:1028000000F0FEB801200124FFF794FE40F22031D1
:10281000C5F200014A68496854FA81F115E00220C6
:10282000FFF788FE40F22031C5F200018A6889680E
:1028300008E00520FFF77EFE40F22031C5F20001DE
:102840004A694969012353FA81F102F47F42B2FBDC
:10285000F1F10131B0FBF1F010BD0220BDE81040F4
:10286000FFF766BD0320BDE81040FFF761BD000023
:1028700040F2D021C5F200010A680020062A88BF74
:102880007047DFE802F0044206192C3F3600FFF7DC
:10289000EBBD9820C5F20200006A800633D443F2F3
:1028A0001000C5F20100006841F600314004C0F29A
:1028B000B70101EAE07070479820C5F20200006A93
:1028C000800620D443F21000C5F2010000684DF6E6
:1028D00000014000C0F2B85101EAE0707047D1F841
:1028E000480744F240214006C0F20F0101EAE070BF
:1028F00070479820C5F20200016A0168016A006809
:10290000C00380B270470020704741F2F050C3F21C
:1029100000000068D1F8F410012252FA81F1B0FBF6
:10292000F1F0704740F2E020C5F200000168012993
:1029300015D091B9B821C5F20201096889060CD4F5
:1029400043F21001C5F2010109684DF60002490089
:10295000C0F2B85202EAE17106E0002104E041F25F
:10296000F051C3F200010968D0F8CC00012252FAFC
:1029700080F0B1FBF0F0704710B540F2F024C5F2E2
:10298000000421680020052932D8DFE801F00306A1
:102990000B17312AFFF768FD2AE041F2F050C3F22D
:1029A000000022E043F21000C5F2010040F258217D
:1029B0000069C3F200010968C0010FE0B820C5F248
:1029C00002000068800612D443F21000C5F2010034
:1029D00000684DF600014000C0F2B85101EAE07015
:1029E00006E041F2EC50C3F20000006800E0002075
:1029F000D4F8C410012252FA81F1B0FBF1F010BDFD
:102A000010B540F2F824C5F20004206803280BD06A
:102A1000012803D0D8B9FFF727FD19E041F2F050A3
:102A2000C3F20000006813E0B820C5F2020000689D
:102A300080060CD443F21000C5F2010000684DF688
:102A400000014000C0F2B85101EAE07000E000204F
:102A5000D4F8C410012252FA81F1B0FBF1F010BD9C
:102A6000B0B540F26025C5F20005044655F82000D7
:102A700002280ED0012816D0F8B9FFF7F5FC05EBB7
:102A800084010122D1F8A01052FA81F1B0FBF1F0DB
:102A9000B0BD9820C5F20200016A0168016A0068B1
:102AA000C00380B2B0BDD5F8B80744F2402140065B
:102AB000C0F20F0101EAE070B0BD0020B0BD10B55A
:102AC00040F2A824C5F20004206803280BD0012896
:102AD00003D0D8B9FFF7C8FC19E041F2F050C3F2B7
:102AE0000000006813E0B820C5F20200006880060C
:102AF0000CD443F21000C5F2010000684DF600014D
:102B00004000C0F2B85101EAE07000E00020D4F8C3
:102B1000F010012252FA81F1B0FBF1F010BD002A51
:102B200040F20032C5F200021CBF4FF0005342F8E1
:102B300020304B1E002908BF4FF0804342F8203060
:102B4000704700000000000080B500EE100AB8EEEB
:102B5000400A10EE100A03F035F89FED0D0B53EC10
:102B6000102B02F031FF02F0FDFE00EE100A40F2E1
:102B70000041C5F20001BCEEC00A0A6810EE100A5E
:102B8000082828BF082060F310320A6080BD00BF0B
:102B9000C19D76BEC028783E41F60031C0F2B70133
:102BA00088420DD04DF60001C0F2B851884207D0DE
:102BB00046F60041C0F2DC2188421CBF012070476C
:102BC00040F24812C5F200024FF000631360C2F8F1
:102BD000E0304DF6000343F21001C822C0F2B853B2
:102BE000C5F20101C5F2020298424FF020031360C2
:102BF00003D1086840F080400AE046F600430A68C6
:102C0000C0F2DC23984214BF42F4804042F40040FA
:102C1000086000207047002000F00CB8012000F090
:102C200009B8022000F006B8032000F003B8042021
:102C3000AFF300802DE9F041054645F64460C1F24E
:102C4000000050F825000468046041F23840C3F2E7
:102C50000000405DB0B141F2F45800260127C3F2F4
:102C6000000800BF07FA06F0204206D058F82500F9
:102C700050F8261009B1204688470136072EF1D1B9
:102C8000BDE8F08141F2F450C3F2000050F8250095
:102C90000168002908BFBDE8F0812046BDE8F04189
:102CA000084718B10021C0E90011704746F26B00D7
:102CB00046F21201C1F20000C1F200019322FDF7B9
:102CC00095FF0000B0B5D9B3054645F644600C4603
:102CD0000021C1F2000000BF50F82120AA4203D019
:102CE00001310529F8D318E045F65862C1F2000217
:102CF00032F8111001230A0AC9B203FA01F140F2B5
:102D00002023C5F2000343F82210002150F82120AF
:102D1000AA420DD001310529F8D346F2720046F2DD
:102D20001201C1F20000C1F200014D22FDF75EFF69
:102D300009A050F8210000F048FB6068E860B0BDD1
:102D400046F26B0046F21201C1F20000C1F200012E
:102D50005C22FDF74BFF00BF1A0001001B000100C1
:102D6000160001001500020016000200F0B581B047
:102D700045F6446C4FF0000EC1F2000C5CF82E30AA
:102D800083420FD00EF1010EBEF1050FF6D346F2CD
:102D9000720046F21201C1F20000C1F200014D22A0
:102DA000FDF724FF01EB4103D0F814C007249C4039
:102DB0002CEA040C14795D1CAC404CEA040C5479E8
:102DC0009D1C177AAC4044EA0C0407FA03F3234332
:102DD00043614C0030250426C36BA540947906EB73
:102DE0004106AB4304FA06F64FF0010CD5793343A4
:102DF0000CFA01F4A3438D402B43C363126800EB2C
:102E00008101002F8A61046010D045F66260C1F232
:102E1000000010F90E004EF2001200F01F010CFA33
:102E200001F14009CEF2000242F8201001B0F0BDDD
:102E300042F20000C5F2080000F006B847F20000B8
:102E4000C5F20A00AFF300802DE9F04381B041F2F2
:102E5000FC4545F63C620021C3F20005C1F20002C8
:102E600052F8213083420FD00131022905F1780553
:102E7000F6D346F28E0046F2B001C1F20000C1F274
:102E800000015422FDF7B2FE1E264FF0010800BFDC
:102E90002C68002C44D0217BA068C1F3421700F1BC
:102EA000580201F01F0352F8277008FA03F919EAD3
:102EB000070F0FD0C1F3421342F82390D4F800C09B
:102EC000BCF1000F06D06168012200232046E047D4
:102ED000A068217B00F16002490952F8213013EA11
:102EE000090F0ED042F82190D4F800C0BCF1000FB9
:102EF00007D06168012201232046E047217BA068BA
:102F00004909403050F8212012EA090F08D040F852
:102F10002190276827B16168002202232046B84724
:102F2000013E05F1040504BF01B0BDE8F083AFE741
:102F300041F26C60C3F2000002684AB141F248609D
:102F4000C3F20000016846F20000C5F20800104715
:102F500046F2061102A0C1F20001AF22FDF746FEC3
:102F6000735F666C6578636F6D6D49727148616EF1
:102F7000646C65725B305D0041F26C60C3F200000E
:102F800042684AB141F24860C3F20000416847F22A
:102F90000000C5F20800104746F2061102A0C1F277
:102FA0000001BC22FDF722FE735F666C6578636FDB
:102FB0006D6D49727148616E646C65725B315D0064
:102FC00041F26C60C3F2000082684AB141F248608D
:102FD000C3F20000816848F20000C5F20800104703
:102FE00046F2061102A0C1F20001C922FDF7FEFD62
:102FF000735F666C6578636F6D6D49727148616E61
:10300000646C65725B325D0041F26C60C3F200007B
:10301000C2684AB141F24860C3F20000C16849F297
:103020000000C5F20800104746F2061102A0C1F2E6
:103030000001D622FDF7DAFD735F666C6578636F79
:103040006D6D49727148616E646C65725B335D00D1
:1030500041F26C60C3F2000002694AB141F248607B
:10306000C3F2000001694AF20000C5F208001047EF
:1030700046F2061102A0C1F20001E322FDF7B6FDFF
:10308000735F666C6578636F6D6D49727148616ED0
:10309000646C65725B345D0041F26C60C3F20000E9
:1030A00042694AB141F24860C3F20000416946F208
:1030B0000000C5F20900104746F2061102A0C1F255
:1030C0000001F122FDF792FD735F666C6578636F16
:1030D0006D6D49727148616E646C65725B355D003F
:1030E00041F26C60C3F2000082694AB141F248606B
:1030F000C3F20000816947F20000C5F209001047E1
:1031000046F2061102A0C1F20001FE22FDF76EFD9B
:10311000735F666C6578636F6D6D49727148616E3F
:10312000646C65725B365D0041F26C60C3F2000056
:10313000C2694AB141F24860C3F20000C16948F275
:103140000000C5F20900104746F2061103A0C1F2C3
:10315000000140F20B12FDF749FD00BF735F666C82
:103160006578636F6D6D49727148616E646C6572EC
:103170005B375D0042F20000C5F20000016841F0DB
:103180000101016041F29060C3F20000006800B1EB
:103190000047704743F20000C5F20000016841F0AB
:1031A0000101016041F29060C3F20000406800B18B
:1031B0000047704741F298604DF21C01C3F20000D5
:1031C000C5F2020100680A68002842F001020A60A4
:1031D00008BF7047004710B544F20004C5F2000470
:1031E000A06A0021B1EB106F1CBFE16AE16241F2FD
:1031F0009C61C3F200010A6812B1010E00209047E1
:103200002068C00704BF0120606210BD10B544F201
:103210000004C5F20004A06A0021B1EB106F1CBFCE
:10322000E16AE16241F29C61C3F200014A6812B1B5
:10323000010E01209047206880075CBF0220606279
:1032400010BD10B544F20004C5F20004A06A0021CC
:10325000B1EB106F1CBFE16AE16241F29C61C3F205
:1032600000018A6812B1010E0220904720684007D1
:103270005CBF0420606210BD10B544F20004C5F2CA
:103280000004A06A0021B1EB106F1CBFE16AE1628B
:1032900041F29C61C3F20001CA6812B1010E032021
:1032A0009047206800075CBF0820606210BD10B521
:1032B00044F20004C5F20004A06A0021B1EB106FD3
:1032C0001CBFE16AE16241F29C61C3F200010A693C
:1032D00012B1010E042090472068C0065CBF102088
:1032E000606210BD10B544F20004C5F20004A06A8B
:1032F0000021B1EB106F1CBFE16AE16241F29C61F9
:10330000C3F200014A6912B1010E052090472068FE
:1033100080065CBF2020606210BD10B544F200043E
:10332000C5F20004A06A0021B1EB106F1CBFE16A76
:10333000E16241F29C61C3F200018A6912B1010E9F
:1033400006209047206840065CBF4020606210BDA8
:1033500010B544F20004C5F20004A06A0021B1EBEC
:10336000106F1CBFE16AE16241F29C61C3F200018F
:10337000CA6912B1010E07209047206800065CBFA1
:103380008020606210BD000081B2202912D240F27C
:103390000012000CC5F200024FF0010C02EB80039A
:1033A0000CFA01F1196400BF52F820300B40994229
:1033B000FAD0704746F2B91046F26111C1F200002E
:1033C000C1F200014922FDF711FC10B5044600F0DE
:1033D00005F82046BDE81040FFF7D6BF81B220298E
:1033E00011D240F20012000CC5F200024FF0010CA5
:1033F00002EB80030CFA01F1196200BF52F8203091
:103400000B42FBD0704746F2B91046F26111C1F28F
:103410000000C1F200013022FDF7E8FBAFF30080AD
:103420002DE9F04381B045F2F008C5F20808D8F85C
:103430000450D8F80000002D00EA050914D041F22C
:1034400008640027C3F20004002600BFE80703D089
:1034500054F8260000B18047B7EB550F04D0013671
:10346000102E4FEA5505F1D3C8F8049001B0BDE81D
:10347000F083C1B1D0F830C0CB69C1F808C0032BCC
:1034800005D1426BCA60826B0A61C06B4861486AB1
:1034900048B1082B07D80121994011F4A37F18BF28
:1034A00010EA0C0F01D10020704741F213707047F1
:1034B00010B50446C06CC0F30B4C236810469A014B
:1034C00027D44A6812F0030E1EBF0432A2EB0E028C
:1034D0004A608B6802FB03F2BCEB920F4FEA920E3C
:1034E00005D2AEEB0002624538BF9446E646BEF117
:1034F000000F08BF10BDC96804F5007301EB80011F
:10350000724600BF53F8044B013A41F8044BF9D11D
:10351000704410BD10B5C46C0368844610469A010F
:1035200029D44A686FF31F3412F0030E1EBF043211
:10353000A2EB0E024A608B6802FB03F2B4EB920F1F
:103540004FEA920E05D2AEEB0002A24238BF1446FB
:10355000A646BEF1000F08BF10BD09690CF5007347
:1035600001EB8001724600BF51F8044B013A43F869
:10357000044BF9D1704410BD2DE9F04141F2C46013
:10358000C3F200000568002D00F0C7804BF2000474
:10359000C5F20904276CD4F88C8041F2461007422A
:1035A000AF60C5F80C8018D06868002800F0BE80B5
:1035B000F8040DD4780710D517F4A17F00F0998096
:1035C000D5E90A6341F20F7220462946B04704E06C
:1035D0006A6A12B1E96A204690474EF6B86007421F
:1035E00047D02868002800F0AA80780507D44AF65A
:1035F000802007420CD028688078F8B917E0286846
:10360000C068296850B12A692046FFF751FF0CE0D5
:10361000F80605D4B80611D52968F4E7086930B171
:1036200029682A692046FFF775FF286106E0AE6A1F
:10363000EB6A41F2127220462946B047380718D586
:103640002868C06878B10026C3F6FE76A06C3042C8
:1036500009D029682A692046FFF72AFF28612868CF
:10366000C0680028F2D1D5E90A6300222046294625
:10367000B047F80304D5EA6912B1E96A20469047D9
:1036800040F2373018EA000F16D05FEA48700CD4C9
:103690005FEAC86026D418F4087F02D028688078D2
:1036A000B0B3D5E90A63002203E0D5E90A6341F229
:1036B000117220462946B047F80708D0206DC00790
:1036C00014BFAA696A6912B1E96A20469047606C22
:1036D00038406064D4F88C0000EA0800C4F88C001C
:1036E000BDE8F0812A6A002AE6D0E96A20469047C0
:1036F000E2E769682046FFF7BCFE286800287FF4EF
:103700006CAFAE6A002E3FF468AFEB6A00225BE755
:10371000D5E90A6341F21272CBE746F2C61114A052
:10372000C1F2000140F2F752FDF760FA46F2C6110D
:1037300007A0C1F2000140F23252FDF757FA46F2FB
:10374000C61107A0C1F2000140F25452FDF74EFA33
:1037500068616E646C652D3E636F6D6D616E6400B3
:1037600068616E646C652D3E6461746100000000E8
:10377000735F7364696648616E646C655B305D009D
:1037800010B545F22404C5F2000460680021B1EBD5
:10379000106F1CBFA168A16041F29C61C3F20001DF
:1037A0000A6A12B1010E082090474FF050200068BD
:1037B000C00704BF0120206010BD10B545F22404ED
:1037C000C5F2000460680021B1EB106F1CBFA16856
:1037D000A16041F29C61C3F200014A6A12B1010E7C
:1037E000092090474FF050200068C00704BF022016
:1037F000206010BD4EF68850CEF20000016840F601
:10380000034241F470010160016841F00F01016061
:1038100041681143416040F20001C1F2000140F8EB
:10382000801C40F22020C5F200000021C0F8E81002
:1038300078210160AFF300804EF60C50CEF200000C
:103840000021C0F8CC104FF48021C0F8D01047F60A
:10385000E171C0F209010022C0F8D4100121C2F2C6
:103860000102C0F8CC10C0F8D02043F6E172C2F2D9
:103870000402C0F8D4200222C0F8CC204FF6006227
:10388000C1F20302C0F8D0204FF6E372C1F2030286
:10389000C0F8D4200322C0F8CC204FF08042C0F8FA
:1038A000D0204FF6E172C4F21002C0F8D420C0F864
:1038B000C410416849F6F77241F00801416001689F
:1038C000114044F20802C0F2FA5211430160D0F8EC
:1038D0008010042241F44061C0F88010D0F8281212
:1038E00062F39C61C0F828124EF28030CEF20000E4
:1038F0004FF0FF31016041608160704780B5EFF3A8
:103900000580E0B140F20C2EC3F2000EDEF800207C
:10391000501C14D040F2D83C5302C3F2000C02EB0E
:1039200042025CF8033040F2743CC3F2000C0CEB32
:1039300082015CF82220CEF800308A6000E000208E
:10394000BDE88040EFF3148C1CF0080F27D0F1EE97
:1039500010CA2CF09F0C2CF0704CE1EE10CA00EE57
:1039600010EA00EE90EA01EE10EA01EE90EA02EEB3
:1039700010EA02EE90EA03EE10EA03EE90EA04EE9B
:1039800010EA04EE90EA05EE10EA05EE90EA06EE83
:1039900010EA06EE90EA07EE10EA07EE90EA7146AA
:1039A00072467346F4468EF3008C7447411EEFF363
:1039B000058207294FF000001ED8EAB101EB410053
:1039C00040F27432C3F2000202EB800252F8080F98
:1039D00000284FF000000FD040F20C2CC3F2000C76
:1039E0001060DCF8002040F2D8304B02C3F2000037
:1039F000C2500120CCF80010EFF3148C1CF0080F1B
:103A000027D0F1EE10CA2CF09F0C2CF0704CE1EE98
:103A100010CA00EE10EA00EE90EA01EE10EA01EEA4
:103A200090EA02EE10EA02EE90EA03EE10EA03EEEC
:103A300090EA04EE10EA04EE90EA05EE10EA05EED4
:103A400090EA06EE10EA06EE90EA07EE10EA07EEBC
:103A500090EA714672467346F4468EF3008C7447C2
:103A6000EFF3058000284FF0000029D040F27431B8
:103A700040F2D83CC3F20001C3F2000C01F108028D
:103A80000123614642F8041C0B6001F5007101330B
:103A900042F8081C10600C32092BF3D14FF0FF30B4
:103AA000CCF8000E40F20C20C3F2000000210160AF
:103AB00002208CF30B888CF3098880F31488012092
:103AC000EFF3148C1CF0080F27D0F1EE10CA2CF085
:103AD0009F0C2CF0704CE1EE10CA00EE10EA00EEE4
:103AE00090EA01EE10EA01EE90EA02EE10EA02EE30
:103AF00090EA03EE10EA03EE90EA04EE10EA04EE18
:103B000090EA05EE10EA05EE90EA06EE10EA06EEFF
:103B100090EA07EE10EA07EE90EA714672467346A5
:103B2000F4468EF3008C7447EFF3058100294AD0E8
:103B3000411EEFF3148207294FF0000015D812F050
:103B4000020212D001EB410040F27431C3F20001D5
:103B500001EB8001084650F8082FA2B3496881F3B1
:103B60000B88006880F309880120EFF3148C1CF0A7
:103B7000080F56D0F1EE10CA2CF09F0C2CF0704CB0
:103B8000E1EE10CA00EE10EA00EE90EA01EE10EA53
:103B900001EE90EA02EE10EA02EE90EA03EE10EA7D
:103BA00003EE90EA04EE10EA04EE90EA05EE10EA65
:103BB00005EE90EA06EE10EA06EE90EA07EE10EA4D
:103BC00007EE90EA2DE0EFF3148C00201CF0080FB4
:103BD00027D0F1EE10CA2CF09F0C2CF0704CE1EEC7
:103BE00010CA00EE10EA00EE90EA01EE10EA01EED3
:103BF00090EA02EE10EA02EE90EA03EE10EA03EE1B
:103C000090EA04EE10EA04EE90EA05EE10EA05EE02
:103C100090EA06EE10EA06EE90EA07EE10EA07EEEA
:103C200090EA714672467346F4468EF3008C7447F0
:103C3000EFF30581F1B1411EEFF3148207294FF034
:103C4000000050D812F002024DD001EB410140F2C9
:103C5000743CC3F2000C0CEB8100024652F8083FA2
:103C600043B1EFF309834068834203D35CF821003A
:103C700083422ED9EFF3148C00201CF0080F5FD084
:103C8000F1EE10CA2CF09F0C2CF0704CE1EE10CA33
:103C900000EE10EA00EE90EA01EE10EA01EE90EA82
:103CA00002EE10EA02EE90EA03EE10EA03EE90EA6A
:103CB00004EE10EA04EE90EA05EE10EA05EE90EA52
:103CC00006EE10EA06EE90EA07EE10EA07EE90EA3A
:103CD00036E040F2D830C3F20000136080F30B8866
:103CE00080F309880120EFF3148C1CF0080F27D013
:103CF000F1EE10CA2CF09F0C2CF0704CE1EE10CAC3
:103D000000EE10EA00EE90EA01EE10EA01EE90EA11
:103D100002EE10EA02EE90EA03EE10EA03EE90EAF9
:103D200004EE10EA04EE90EA05EE10EA05EE90EAE1
:103D300006EE10EA06EE90EA07EE10EA07EE90EAC9
:103D4000714672467346F4468EF3008C744741F216
:103D5000C860C3F2000000684EF20401C5F2000121
:103D6000012200280A6008BF70470047B0B541F241
:103D70000044C3F20004206804F1080510B1A84211
:103D800001D020E0256040F214210320C3F200019D
:103D900051F8202072B101301028F9D3FCF794FBC0
:103DA00004F1080218219542016004BF4FF0FF3072
:103DB000B0BD08E004F108034FF0FF329D4241F826
:103DC000202008BFB0BD45F6896045F69D61C1F26F
:103DD0000000C1F20001682200F003FD70B50F2859
:103DE000C4BF002070BD40F21426C3F20006044692
:103DF00056F82000022C19DC411C18BF70BD20466B
:103E000000F06FF880B9204600F06DF860B941F21B
:103E1000D830C3F200000078BFF35F8FC00706D030
:103E200041F22C40C3F2000046F8240070BD41F27C
:103E3000D835C3F20005284600F022F9002841F2E7
:103E40002C40C3F20000EFD0297845F6D052C1F2E1
:103E5000000201F003030832022B026004D101F0DA
:103E6000FC0001302870DBE745F6AE7045F6ED71D9
:103E7000C1F20000C1F2000140F2A55200F0B1FC15
:103E8000002201200A7070471D2070476FF0150056
:103E90007047002070471046704701207047FCF7BC
:103EA00046BB6FF01800002918BF0020704701685A
:103EB000896A084700207047016801220B690021C8
:103EC000184701688969084703681B6918477047E4
:103ED000016800220B69002118476FF01500704738
:103EE00070470020704700207047007B704700003B
:103EF0002DE9F04381B041F21848C3F20008D8F828
:103F000000200D46002A044608F1080902D04A455F
:103F100002D036E0C8F8009041F21040C3F2000031
:103F200006680DE0B76857B13846FCF7D9FEA842DD
:103F300005D1384621462A46FCF7A6FEE8B1766848
:103F4000002EEFD1072D05D113A007222146FCF743
:103F50009BFE40B108F10800814512D10026304691
:103F600001B0BDE8F08308F10800814509D141F2B4
:103F70002840C3F200000668F1E708F10800814517
:103F8000EDD045F6896045F69D61C1F20000C1F2B1
:103F90000001682200F025FC64656661756C7400A0
:103FA00010B50446406840B1FFF79FFF012804D1D7
:103FB0006068002818BF043810BD002010BD10B57F
:103FC0000446406810B1FFF790FF08B1002010BD13
:103FD0006068002818BF043810BD4068002818BF6A
:103FE00001207047406830B180B5FFF77EFFB0FA1E
:103FF00080F0400980BD00207047006870470000D5
:1040000070B50E4600250446C0E900550EA13046A5
:10401000FCF72CFE304402E02F2A06D0013541196E
:104020002160425D002AF7D101E00131216035B104
:104030002946FFF75DFF01462046616070BD03A081
:1040400005A12A2200F0CDFB2F0000006C656E2038
:10405000213D2030000000002E5C6D6265642D6FF4
:10406000735C706C6174666F726D5C46696C6550F0
:104070006174682E637070000120704711207047D2
:10408000017811F003020DD0012A04BF002070470F
:1040900080B545F6ED7106A0C1F2000140F29D52D7
:1040A00000F09FFB41F0020101700120704700BF4A
:1040B00030203D3D20282A67756172645F6F626A17
:1040C0006563742026204358415F47554152445F41
:1040D0004D41534B290000004EF6085CCEF2000C17
:1040E000DCF8001040F200030022C3F2000300BF1E
:1040F00051F8220043F8220001324C2AF8D1CCF8C2
:10410000003000F033BC00F0D7B80000FEE710B577
:10411000FFF764FE40B10168896A8847B0F1FF3F4C
:10412000C8BF10BD444200E00924FCF7CDF904608B
:104130004FF0FF3010BD00F0FEBAB0B50D4645F6A9
:104140002C61C1F200010446FCF712FEA8B145F64D
:104150003361C1F200012046FCF70AFE80B145F64A
:104160002461C1F200012046FCF702FE58B120781C
:1041700040280ED1D4F8014009E00020002404E0DA
:104180000120012401E002200224FFF727FE20463F
:10419000B0BDA8074FF0020058BF012015F0060F70
:1041A00003D12807092101EAE07015F00C0F18BFB0
:1041B00000F5007005F0040140EA01212046BDE849
:1041C000B04000F0D5BB002200F0C8BA2DE9F04F96
:1041D00081B0B2F1FF3F52DD14460F4682460228FD
:1041E00036DC504600F0A7FA90B3012C30DB41F2E8
:1041F000EC30C3F2000000EB0A0900260FF29C0825
:104200004846002590F800B0BBF10D0F1BD0B85DFB
:104210000A2818D1AE420BDD7919721B504600F006
:1042200068FF00282FDB0544B5422FDB89F800B07A
:1042300001225046414600F05CFF002823DB25D0D8
:104240000D2089F80000B8190136A642DADB00E03B
:104250000025A5421ADA7919621B504600F049FF81
:10426000002810DB0544012D10DB781910F8010C33
:1042700041F2EC31C3F2000101F80A0008E0FCF75A
:1042800023F9162101604FF0FF3502E0002D00DB1D
:10429000651B284601B0BDE8F08F00BF0D0000008F
:1042A00080B582B08DF807000DF1070101200122D1
:1042B00000F01FFF02B080BD10B50446FFF78EFD71
:1042C00040F21421C3F200010022002841F824200A
:1042D00009D0016849698847B0F1FF3FC4BF002099
:1042E00010BD444200E00924FCF7EEF804604FF0F2
:1042F000FF3010BDEFF31080012121EA000070476C
:1043000001460122D1E84F0FC1E8432F002BF9D11C
:10431000002818BF0120704710B541F23444C3F2A1
:1043200000042068013005D000F0D1F82068013089
:10433000206010BD02A00FA1512200F052FA00BF70
:10434000637269746963616C5F73656374696F6ECE
:104350005F7265656E7472616E63795F636F756EAF
:10436000746572203C2055494E5433325F4D41589C
:10437000000000002E5C6D6265642D6F735C706CD4
:104380006174666F726D5C6D6265645F637269749F
:104390006963616C2E63000041F23440C3F2000097
:1043A000016821B1016801390160006800B17047FE
:1043B00000F0A4B8EFF30580002818BF0120704773
:1043C00008B900BFFEE700F01DFA46F2C820C1F2AE
:1043D0000000704790F90020501C26D0D31702F03F
:1043E0001F0002EBD36201294FEA62120ED0D9B945
:1043F0004EF20003D2B2C5F208034FF0010C53F89D
:1044000022100CFA00F021EA00000BE04EF200034B
:10441000D2B2C5F208034FF0010C53F822100CFA87
:1044200000F0084343F82200704780B546F21D2093
:1044300046F23521C1F20000C1F200012D2200F048
:10444000D0F90A46013102701ABF002110467047A8
:1044500000F0ECBA0022AFF3008070B515460E46AE
:104460000446FFF7EEFF701C08BF70BD20462946CA
:1044700000F00EF801212046FFF7ACFF0021204696
:10448000BDE87040AFF3008090F9000000F00CBB75
:1044900090F90000421C0ED0C21700EBD26200F06F
:1044A0001F00C2F3471240EA42104CF20002C5F26C
:1044B00008028154704780B546F21D2046F235212E
:1044C000C1F20000C1F200013D2200F08AF9EFF3D1
:1044D0001081EFF3108072B641F2CC60C3F200009D
:1044E000027802B17047012241F2304322EA010111
:1044F000C3F200031970027070470000EFF31080E0
:10450000C0070DD041F2CC60C3F200000021017061
:1045100041F23040C3F20000007800B162B670474B
:1045200080B502A008A1362200F05BF92161726516
:104530005F696E74657272757074735F656E6162C7
:104540006C656428290000002E5C6D6265642D6F27
:10455000735C68616C5C6D6265645F6372697469E9
:1045600063616C5F73656374696F6E5F6170692E00
:10457000630000002DE9F0438BB00646B0F1FF3F29
:104580008946C4BF40F20116C8F2FF0601A82821DF
:104590009046FCF7C4FBFFF7BFFE41F24040C3F278
:1045A000000001684A1C0029026019D1DDF818C01A
:1045B000DDE901310DF10C0E9EE8844041F290409E
:1045C000C3F2000080E84003C0E9033100F11401A8
:1045D00081E8844007AF8ECFC0E908C128308CC085
:1045E000DDE90521DDE90137DDE9034541F2C84098
:1045F000C3F2000080E84003C0E90337C0E9054585
:10460000C26107AF8CCF00F1200C0A9E8CE80E002F
:1046100041F24441C3F200010968C7620029066300
:1046200004D041F2C840C3F200008847FFF7B4FE4F
:104630000BB0BDE8F08300002DE9F04F81B00446D7
:10464000406890F8381011B990F83A0010B101B0F4
:10465000BDE8F08F2068006880472068C069804707
:104660000568002D51D01F26012100BFF2B201FACA
:1046700002F2954203D0013E3206F7D10026476888
:10468000381F1D284CD2072101FA00FB44F24020BC
:10469000C0F20F0000212A46EBFB0021501E61F101
:1046A000000100232A464FF0000AFBF767FF80460F
:1046B0008946D4E90010C0F800A04968C0F804A0F9
:1046C00088476168A7F1200208624FF0FF30B840C8
:1046D000002A81F83B60A8BF0020C043C1E9025016
:1046E0000120C1F810B0C1E90689C1E90AAAC1E9EF
:1046F0000CAA81F83AA00887204600F0B2FB2046B9
:1047000001B0BDE8F04F00F0C3BA45F6676045F66A
:104710006961C1F20000C1F200012D2200F061F8D0
:1047200045F6676045F66961C1F20000C1F200011B
:104730003B2200F056F810B5FFF750FB40B101687E
:10474000C9698847B0F1FF3FC8BF10BD444200E0CF
:104750000924FBF7B9FE0460002010BDB0B5144673
:104760000D46FFF73BFB50B1016822460B69294615
:104770009847B0F1FF3FC8BFB0BD444200E00924F4
:10478000FBF7A2FE04604FF0FF30B0BD4FF4802075
:10479000006880F388884FF00410006820F0010062
:1047A0002DE9F00F20F00100A2B02DEC000A014627
:1047B00002460346044605460646074680468146AD
:1047C00082468346844680F3008C84473DEC000A91
:1047D00022B0BDE8F00F00BF4FF07C5000F066FC47
:1047E000FAE782B014460D460646FFF795FD40F203
:1047F0004410C8F2FF00002231462B46009400F01E
:1048000031F8000082B0FFF787FD01AC2621204679
:10481000FFF720FE002500BF01212046FFF738FEEC
:10482000962000F051FC00212046FFF731FE962033
:1048300000F04AFC0135042DEED10426012120466A
:10484000FFF726FE4FF4C87000F03EFC0021204622
:104850000025FFF71DFE4FF4C87000F035FC013E47
:10486000ECD1D9E7044641F24840C3F20000764655
:10487000984617460D46FFF743FD58B9DDF80090FE
:10488000204639463246FFF775FE284641464A46DD
:1048900000F036F900F050F883B080B581B00DF12A
:1048A0000C0C8CE80E0003A9009100F029F801B06F
:1048B000BDE8804003B0704770B582B00446FFF792
:1048C0002BFD00200D260DF107050FE00D2806D069
:1048D0000220012229468DF8076000F00AFC022020
:1048E0000122214600F005FC14F8010B21780A2969
:1048F000ECD00029F3D102B0BDE87040FFF74CBD09
:1049000080B5A2B00B46024601A88421FBF7AEFE9B
:10491000842808D300218DF8871042F62E61C0F656
:104920002E21CDF883100128A4BF0DF10400FFF75C
:10493000C3FF22B080BD000041F2C440C3F20000BA
:10494000FFF7DEFC30B1FFF7E7FCBFF34F8F00BF8E
:1049500020BFFDE7FFF72EFD28B9FFF7CBFC10B114
:104960000120FFF72DFDFFF74DFF7047FDF755BC08
:10497000F0B583B00D460646FFF7F8F90446002867
:1049800051DB0027684631460297FFF739FBFFF7F6
:1049900024FB40B16846FFF725FB78B16846FFF776
:1049A0000EFB02902EE0FBF78FFD1321016040F219
:1049B0001420C3F2000040F824701FE06846FFF79F
:1049C000EFFA80B106466846FFF717FB31680246EA
:1049D0008F6802A930462B46B84790B14542FBF795
:1049E00073FD056003E0FBF76FFD1321016040F2EA
:1049F0001420C3F20000002140F824104FF0FF34CF
:104A000011E0029840F21421C3F2000141F82400A1
:104A100041F2DC30C3F200000021015541F2EC30DC
:104A2000C3F200000155204603B0F0BD80B5421C22
:104A300028D0C21700EBD26218A3C2F3471200F0CD
:104A40001F0C33F8123001204FEA132EDBB29840CE
:104A500040F22023D201C5F2000342EA8C0243F85F
:104A60002E004FF400501860D018D0F8E02D42F41A
:104A70008072C0F8E02DD0F8E02D61F30202C0F89A
:104A8000E02D80BD46F2222046F27F21C1F20000D7
:104A9000C1F200011722FFF7A4FE00BF0E000F00B5
:104AA0001000110009020A02421C1CD0C21700EBC0
:104AB000D26200F01F00C2F3471241F20003D2019C
:104AC00042EA8002C5F20003D018D258022922F02F
:104AD000300204D0012908BF42F0100201E042F088
:104AE00020020260704780B546F2222046F27F2104
:104AF000C1F20000C1F200012A22FFF772FE00009D
:104B00002DE9F04141F2C844C3F200040D4621688A
:104B1000064601F0C0408FB2B0F1C04FC1F3074369
:104B200008BF4F42904645F6EE60C1F200003A469B
:104B3000FFF7B2FEA7F23110132827D8DFE800F004
:104B40000A101316191C1F2226262626262626267C
:104B500026262651A16845F6D960C1F2000013E06F
:104B6000A16844A010E0A1683EA00DE0A16838A0B3
:104B70000AE0A16831A007E0A16827A004E0A168CD
:104B800029A001E0A1681EA0FFF786FE3046FFF7CE
:104B900093FE616845F65270C1F20000FFF77CFE9B
:104BA0004DB138A0FFF788FE2846FFF785FE37A0F5
:104BB0004146FFF771FEA16845F63F70C1F2000063
:104BC000FFF76AFE216845F66270C1F20000FFF748
:104BD00063FE45F6BF60C1F20000BDE8F041FFF79B
:104BE0005BBE02A0FFF758FED0E700BF41737365BC
:104BF0007274696F6E206661696C65643A200000AA
:104C00004D65737361676551756575653A203078D8
:104C100025582C200000000054696D65723A203040
:104C20007825582C200000004576656E74466C612E
:104C300067733A20307825582C2000004D656D6F41
:104C40007279506F6F6C3A20307825582C20000014
:104C500053656D6170686F72653A20307825582C05
:104C6000200000004D757465783A20307825582C66
:104C7000200000005468726561643A20307825583D
:104C80002C2000000A46696C653A20002B25640040
:104C90002DE9F0414668044696F83A0010B996F8B6
:104CA000390008B1BDE8F081204600F0DAF8656807
:104CB0006968E9B1D5E90C20D1E90031D71A70EB68
:104CC000010767D29A1AD5E9063761EB0000D5F8DB
:104CD0001080991A77EB000141D3AB6844F2402170
:104CE000C0F20F018B420DD1904528BF904636E0AF
:104CF000316AD6E903200844216810400969BDE8FB
:104D0000F041084795F83B10B9B1C1F12003884044
:104D100022FA03F30343A1F120000028A8BF02FAFE
:104D200000F302FA01F044F23F21A8BF0020C0F2D4
:104D30000F01401843F1000107E000FB03F144F2CA
:104D40003F20C0F20F00E2FB030144F24022C0F218
:104D50000F020023FBF712FC804528BF8046286A1B
:104D6000E9684044326A00EA0105954217D020689C
:104D7000016928468847206840688047316A8D422B
:104D800002D9A84203D305E0A842FFF48BAF8842C2
:104D9000BFF488AF20684069BDE8F041004745F6A0
:104DA000696103A0C1F200014FF48472FFF719FD9D
:104DB0006D617463685F7469636B20213D20717558
:104DC0006575652D3E7469636B5F6C6173745F72AA
:104DD0006561640070B50646FFF79EFA3068C068EA
:104DE0008047706890F83A1021BB012100F8391F04
:104DF00050F8351CC9B100BF304600F032F8706879
:104E00004168D0E90C23D1E90045121B73EB050280
:104E10000AD30368CA68002B426003D088689847A9
:104E200070684268002AE7D13930002101703046AD
:104E3000FFF72EFFBDE87040FFF7AEBA80B500F077
:104E400001F880BD10B50446FFF7F6FBFFF764FAE2
:104E5000204600F006F8FFF79FFA6068D0E90C01E1
:104E600010BD2DE9F04F81B04768044697F83A002D
:104E7000002868D120684068804761680A6A9042CB
:104E800061D00146D7E902403A6A44F240238A1AC7
:104E9000C0F20F0310409C42396201D100214CE066
:104EA0003E46A0FB038B56F8289FF27CD6F804A060
:104EB0001AB3C2F1200C28FA02F00BFA0CF1A2F19D
:104EC00020030843002B2BFA02F1A8BF2BFA03F0B2
:104ED000A8BF002120FA0CFC01FA02F545EA0C05F6
:104EE000002B00FA02F2A8BF00FA03F5A8BF0022C7
:104EF000B8EB02026BEB05030DE000234046594678
:104F00002246FBF73BFBA0FB042301FB0433B8EB79
:104F100002026BEB030312EB090243EB0A03151BBE
:104F200073F10005C6E9002307D3013041F1000108
:104F3000121B63F10003C6E90023D7E90C23801894
:104F40005941C7E90C0101B0BDE8F08F48F20000FB
:104F5000C5F2000001210160704748F21400C5F25B
:104F60000000016821F00101016070474EF200204D
:104F7000CEF200004FF480610160704748F20400F7
:104F8000C5F20000016821F001010160016921F012
:104F9000010101614EF28010CEF200004FF48061F9
:104FA0000160BFF34F8F41F2CD60BFF36F8FC3F24B
:104FB000000000210170704780B540F20340FDF70A
:104FC00059F91920BDE88040FDF718BB46F2F020E2
:104FD000C1F200007047F0B583B048F20405C5F295
:104FE0000005FFF7E9FF41F2CD66C3F20006317814
:104FF000F1B94DF68361C4F21B31A0FB010701AC8E
:105000002046FDF74EFE4FF0FF3000EB9740214663
:105010000290281FFDF756FE286840F00200286025
:10502000286820F002002860286840F0010028600D
:105030004EF60850CEF20000006845F26301C1F25E
:10504000000181664EF20010CEF200004FF4806144
:105050000160286920F0010028610120307003B050
:10506000F0BD40F25420C3F20000016821B146F2C5
:10507000C820C1F200000847704748F20800C5F296
:1050800000000068704780B584B04FF08071CDE9B2
:10509000010101208DF80C0048F20000C5F200006B
:1050A00001AA0021FDF762FE04B080BD9FED050A54
:1050B00001EE100A21EE000ABDEEC00A10EE100A41
:1050C00000F008B8002474494FF47A7100FB01F035
:1050D000AFF3008070B50446FFF777F90546FFF798
:1050E000ADFE06462846FFF7A9FE801BA042F9D375
:1050F00070BDB0B514460D46FEF770FE50B10168A4
:105100002246CB6829469847B0F1FF3FC8BFB0BDE3
:10511000444200E00924FBF7D7F904604FF0FF3068
:10512000B0BD5FEA400C08BF91F0000F4FEA8C233E
:105130004FEAC12243EA51514FEA1C5018BF00F513
:10514000F0404FEA300018BF41F000415FEA6C5C6C
:1051500000F02980BCF1FF3F08BF40F0804070475D
:10516000130C06BF12044FF0100C4FF0000C130E7E
:1051700004BF12020CF1080C130F04BF12010CF152
:10518000040C930F04BF92000CF1020CD30F04BF68
:1051900052000CF1010C11464FF00002A0F11F006B
:1051A000A0EB0C00704711F0004F08BF704731F0C2
:1051B00000413FF4D5AF0B0C06BF09044FF0100CB3
:1051C0004FF0000C0B0E04BF09020CF1080C0B0F82
:1051D00004BF09010CF1040C8B0F04BF89000CF112
:1051E000020CCB0F04BF49000CF1010CCCF12003E1
:1051F00022FA03F341EA030102FA0CF2A0EB0C00DD
:1052000000F10100704723F07F4720F07F4C80EAD7
:10521000030000F00040ACEB070303F57C5303F1FF
:10522000FF032DE9804909B44FEA144324EA0348F7
:105230004FEA154B25EA0B4E0FF2042606EB132717
:105240003E7803FB0667C7F5000707FB06F64FEA43
:10525000D64606F102064FEA543707FB066CCCF13E
:10526000005C4FEA1C472CEA074C0CFB06F507FBD9
:1052700006F404EB15464FEA961649085FEA320237
:1052800034BF00204FF000404FEAD13706FB07FC47
:105290004FEA1C4C0CFB0BF7D21B03FB0CF761EB2A
:1052A00007010CFB0EF7B0EB074072EB17420CFB4B
:1052B00008F734BFA2EB0742B2EB074261EB17419C
:1052C0004FEA0C444FEA910706FB07FC4FEA1C4CDF
:1052D0000CFB0BF7B0EBC74072EB573203FB0CF73C
:1052E00034BFA2EBC742B2EBC74261EB57310CFBB4
:1052F0000EF7B0EBC70072EB57720CFB08F734BF28
:10530000A2EBC702B2EBC70261EB57714FEA8161B2
:1053100041EA92114FEA826242EA90124FEA8060BB
:1053200004EBCC04039F4FEAD13706FB07FC4FEA9E
:105330001C4C0CFB0BF7D21B03FB0CF761EB0701BA
:105340000CFB0EF7B0EB074072EB17420CFB08F7B3
:1053500034BFA2EB0742B2EB074261EB17414FEAC1
:105360008C5504EB9C244FEA910706FB07FC4FEA9F
:105370001C4C0CFB0BF7B0EBC74072EB573203FB36
:105380000CF734BFA2EBC742B2EBC74261EB573117
:105390000CFB0EF7B0EBC70072EB57720CFB08F773
:1053A00034BFA2EBC702B2EBC70261EB57714FEA01
:1053B000816141EA92114FEA826242EA90124FEA19
:1053C000806015EB4C2544F100044FEAD13706FB11
:1053D00007FC4FEA1C4C0CFB0BF7D21B03FB0CF732
:1053E00061EB07010CFB0EF7B0EB074072EB1742C5
:1053F0000CFB08F734BFA2EB0742B2EB074261EBAC
:1054000017414FEA813141EA92414FEA823242EA42
:1054100090424FEA80304FEA0C7615EB1C1544F1B0
:10542000000448EA03434EEA0B484FF0000EB2EB8B
:10543000080C71EB030724BF624639464EEB0E0E93
:105440004FF0000B0018524149414BEB0B0BB2EBF4
:10545000080C71EB03077BF1000B24BF6246394651
:105460004EEB0E0E4FF0000B0018524149414BEB32
:105470000B0BB2EB080C71EB03077BF1000B24BFA5
:10548000624639464EEB0E0E51EA020718BF46F04F
:10549000010616EB0E7655F1000254F1000103D51A
:1054A000BDE88901BDE80088BDE88901BDE8004884
:1054B000B619524141EB0101A3F10103704780800D
:1054C0007F7E7D7C7B7A797877767675747372715E
:1054D00071706F6E6E6D6C6C6B6A6A696868676616
:1054E00066656464636362616160605F5F5E5E5DA8
:1054F0005D5C5C5B5B5A5A5959585857575656551C
:1055000055555454535352525251515050504F4F7D
:105510004F4E4E4D4D4D4C4C4C4B4B4B4A4A4A49CD
:105520004949484848474747474646464545454410
:1055300044444443434343424242424141419C46E6
:10554000002B30D477002BD04FEA37071CB503B4BB
:105550004FF010004FF01001BAF1000F06D0BCF16F
:10556000000FDCBF40F0080040F008014FF00000E1
:105570000FBCBDE810400BF1010BBBF1010F08BFE0
:105580005FEA170722BF12F1010211F101014FF08A
:10559000004143F1000300F0004043EA000070477F
:1055A000F9D35708D0E746EA06464FEA164613F104
:1055B000400F1FDD13F1200FDFBF16430A46002105
:1055C00020335B42BED0C3F1200746EA06464FEACD
:1055D000164602FA07F746EA070622FA03F2C3F173
:1055E000200701FA07F742EA070221FA03F14FF018
:1055F0000003A7E746EA020646EA06464FEA1646D1
:1056000046EA0106BCBF46EA0646360C4FF00003E8
:105610004FF000024FF0000194E72DE9804C70B488
:105620009A46934691E8380007C831EA400C48BFD3
:1056300034EA430C03D5FFF7E6FDFFF780FFF0BC2B
:10564000BDE8008C2DE9804C70B49A46934691E8F1
:10565000380007C810F0804F08BF13F0804F03D107
:1056600000F005F8FFF76BFFF0BCBDE8008C20F000
:105670007F4723F07F4C80EA030000F0004007EBF7
:105680000C03A3F57C53A3F1FE0392F0000F00F08E
:10569000B38095F0000F00F077802DE901494FEAC3
:1056A000114021EA00484FEA144624EA064700FB6D
:1056B00006FC08FB06F607FB08F818EB06484CEB5F
:1056C000164C00FB07F718EB07484CEB17404FEA66
:1056D000124B22EA0B4E4FEA154625EA06470BFB12
:1056E00006FC0EFB06F607FB0EFE1EEB064E4CEB11
:1056F000164C0BFB07F71EEB074E4CEB174B18EB4A
:105700000B0840F1000018EB0E0B58EB000840F1BD
:1057100000008F1A4FF000014FF000063CBFC94354
:10572000661B14BFB5EB040C00213CBFC943F61B3C
:105730004FEA174427EA04454FEA1C472CEA074C76
:1057400004FB076205FB07F70CFB05F616EB0746A3
:1057500042EB174204FB0CFC16EB0C4642EB1C42DE
:105760001BEB060658EB020241414EEA8E0E46EA5A
:105770009E0601D5BDE80189B619524141EB0101F0
:10578000A3F10103BDE801894FEA144524EA054667
:105790004FEA114721EA074C05FB07F406FB07F720
:1057A0000CFB06F111EB074144EB174405FB0CFC25
:1057B00011EB0C4144EB1C444FEA124722EA074C20
:1057C00005FB07F206FB07F70CFB06F616EB074690
:1057D00042EB174205FB0CFC16EB0C4642EB1C455A
:1057E0006A1854F1000148BF7047B619524141EBA5
:1057F0000101A3F10103704795F0000F37D04FEA84
:10580000114221EA02464FEA144724EA074C02FB00
:1058100007F106FB07F70CFB06F414EB074441EB1A
:10582000174102FB0CFC14EB0C4441EB1C414FEA0A
:10583000154725EA074C02FB07F506FB07F70CFBAB
:1058400006F616EB074645EB174502FB0CFC16EB7C
:105850000C4645EB1C42121951F1000148BF70473C
:10586000B619524141EB0101A3F1010370474FEA20
:10587000144524EA05464FEA114721EA074C05FB87
:1058800007F106FB07F70CFB06F212EB074241EBB0
:10589000174105FB0CFC12EB0C4251EB1C414FF085
:1058A000000648BF7047921841EB0101A3F10103C4
:1058B000704703B401984100009850EAC12018BF16
:1058C00004204A0D18BF40F0010040F2FF72B2EB15
:1058D000515F08BF40F00200012808BF052002B058
:1058E000704730380A2801D20120704700207047E5
:1058F0008A68002A01DCFBF799BC521E8A604A685C
:10590000C0B2531C4B6010707047000010B50029E6
:105910000AD00878002807D005487844FBF728FA11
:10592000002801D0002010BD0248784410BD0000BE
:10593000FE090000F609000010B500290AD0087819
:10594000002807D005487844FBF712FA002801D058
:10595000002010BD0248784410BD0000E20A00009B
:10596000DA0A000021F0004201F00043A2F1605287
:10597000B2F5801F28BFD2F17F6C0BD95FEA001C03
:1059800043EAC20242EB507018BF704728BF20F0B4
:1059900001007047B2F5801FBCBF184670474FEA40
:1059A000410C1CF5001F02D2084600F089B970B501
:1059B00000F0B4F800000089FFF7F6BF4FF0004098
:1059C000A0F580007047000070B5DFF848C11CEA00
:1059D000111E1EBF1CEA13159EEA0C0F95EA0C0F50
:1059E00000F06F8081EA03044EEAD47EAE4421EADF
:1059F0004C1123EA4C1341F4801143F48013AEF1AF
:105A00007F7EA1FB024CA0FB0365361955EB0C050C
:105A1000A1FB034C4CF10003A0FB021C16EB0C068F
:105A2000654153F10003094218BF46F0010613F423
:105A3000007F0BD14FEA03314FEA053041EA15519F
:105A400040EA165034036FF003020AE04FEAC32124
:105A50004FEAC52041EA555140EA5650F4026FF032
:105A6000020202EB2E4201EB025585EACE710AD00A
:105A70005FEA440C18BF24F0004450F1000041F1EB
:105A8000000120EAD47040F2FE7C624500D270BD75
:105A9000A84214BF4FF080444FF04044002E08BF8E
:105AA0000024BEF1806FA8BFA1F1C041BDE87040E5
:105AB00080F2828001F1C04101F000414FF000000E
:105AC00070470CEA13159EEA0C0F18BF95EA0C0FED
:105AD00006D081EA030E4FF000000EF0004170BDC9
